:020000040000fa
:080000000002040000000000f2
:020000040000fa
:10040000cf5c2300eefe24000e01880000000000f7
:100410000c000700a0cd2600010020000f000700ff
:10042000000020000000e000020032000000020096
:100430000000000094700200000000000040da009c
:100440000000fe00400720000000e0000200320033
:10045000002020009001880000000600a102880012
:10046000800078000000eb001a003700e2804000b6
:1004700054a0b4009101ba00e280400054a0b4003e
:100480009102ba00e280400054a0b4000002eb00e8
:10049000472bde00f507b200a6018800602ce100c2
:1004a00008003a000049eb000201e80002003900b0
:1004b0003420ec0002f0a0008301e900f9ff3e00c7
:1004c000040037006128e100010032000082eb00e7
:1004d000040007001101ba000200e000e3ff3a0047
:1004e0000000060004d0a300e20f49001c00390000
:1004f000810278003549ba000201e80002003900a3
:100500003420ec0002f0a0008301e9000f0032006b
:100510002549ba000201e800020039003420ec004d
:1005200002f0a0008301e900080032000400e000ae
:100530000600320015c9ba000201e80002003900c5
:100540003420ec0002f0a0008301e9008180e80083
:1005500054a0b4000300e000e2ff3a0000000600ef
:100560009102ba00055978008301e900f7ff3200d3
:10057000c82ade00055978008301e900f3ff320044
:100580000400e000f1ff320011d9ba00eeff37009d
:100590008830040000000000962f040000000000d6
:1005a000ac320400000000008031040000000000b4
:1005b0000843040000000000dc41040000000000cb
:1005c000584f0400000000002e4f040000000000ff
:1005d0000040da000000fe002800fa00889fbe00fc
:1005e0008a9fbe008c9fbe00070678008786690040
:1005f0000c003b00030478008704780008f0a10099
:1006000009f0a100840f5000858f5800860f590013
:10061000890f5c00030033000cf0a20001003a00d7
:100620000cf0a100910107006400e1005f003200be
:10063000780147006408e100610032006c01470066
:10064000748557003200be001201be003a04be009d
:100650001a05be001e039000be0a900085035300d9
:1006600006003d000004fd008104fd000205fd00c0
:100670008305fd008703ea00050378000df8a30059
:100680000400320060041400e0841c0060051d00ba
:10069000e0851d006022b8007d0320000d38e100d8
:1006a0008006eb000b0039004433dd00f300b2009c
:1006b0008301730039003700848272000d027800d4
:1006c000e10664008b85d1000a85d3008984d300bc
:1006d0000884d3008703e900f7ff3b0008004000cf
:1006e000898048000a0149008b81490004003b00d1
:1006f00060001000e080180060011900e08119001e
:100700000358a300090032008d82720084827200b7
:10071000610260008301d1000281d3008180d30097
:100720000080d3000603e8001b0037000348a30045
:1007300017003a000600e000170034000603e90045
:100740000d00a3000000480081804800020149001c
:10075000838149000348a3000f003a000600e0002f
:10076000090034000603e9000000400081804800d1
:10077000020149008381490001003a000003eb00b7
:100780000348a300f5ff32006022b80002003700e2
:1007900084827200618266000801070003f0a100f4
:1007a0000cf0a70003f0a0004401370064014700eb
:1007b0006408e10002003a000df8a3003c013a0091
:1007c0003200be001201be003c01370003f0a2005f
:1007d000889fbe008a9fbe008c1f78002a020700f7
:1007e000310233006450e1004f0032006420e10028
:1007f0005200320003826c0007003b000905d00064
:100800000306d000820f54000c065d000200390080
:1008100002003200890178000306780085825500c5
:1008200004003d000003fd008103fd008502ea0095
:100830008b854200840f720002003b0060001000b4
:10084000e08018006011b8000005eb007a28e10094
:100850000a00390006007800c75ddd00f707b20026
:10086000878075002d003700828171000a017800b1
:10087000610560008180d1000080d3008502e9001d
:10088000f9ff3b00060440008784480002003b005b
:1008900060041400e0841c000988a30007003200f3
:1008a0008a81710082817100610164008904d10034
:1008b0000884d3008b05e800170037000978a300ef
:1008c00013003a000b00e000130034008b05e90030
:1008d0000804440089844c000a4474000978a30089
:1008e0000d003a000b00e000070034008b05e90022
:1008f0000804440089844c0001003a000b002000e9
:100900000978a300f7ff32000001eb000200370076
:10091000828171000a017800a00107000cf0a70095
:1009200001f0a000e90137006420e10002003a0074
:10093000838f6c00e90133000801be000200be0095
:10094000e20137000081eb00900237002800fa0036
:10095000889fbe008a9fbe008c9fbe0003866b00ee
:10096000c20007006400e100440032006408e100b6
:100970004a0032006100e100460032006108e100f7
:1009800049003200ec0647006000b8003d02be009e
:100990003d03be00f48657006011b8003d04be0060
:1009a0003d05be007d0320000b0037000000a000c5
:1009b0008d06e900130032000402420085824a00dd
:1009c00006034b0087834b000000400081804800f5
:1009d00002014900838149000802520089825a00bd
:1009e0000a035b008b835b00f0ff3b0008024200c0
:1009f00089824a000a034b008b834b008d06e90075
:100a0000edff3a008482720086827200f707b2001e
:100a10008782720001003200150020001e04900041
:100a20003e0b900006035400e63fb0000368a300ad
:100a3000070032000000a7000500a0008301d100dc
:100a40000281d3008180d3000080d3000603e80038
:100a50008301d1000281d3008180d3000080d300c4
:100a60000002eb000482d2005400070003f0a10052
:100a70000cf0a70003f0a0009000370064024700cc
:100a80006408e1008a0032003400be003401be0078
:100a9000f6ff37006108e100850032006011b80000
:100aa0006000b800f1ff370003ff270002002000bc
:100ab000fbff3700889fbe008a9fbe008c1f780016
:100ac000710107007801330003866c006450e10077
:100ad0002e0032006420e100330032006150e1005a
:100ae0002f0032006120e100310032008585550081
:100af000eb07b000090020000804200005003700c3
:100b00000804440089844c000a00310006034300b5
:100b100087834b000001530081815b00f8ff3300a5
:100b20000203be000800a0000804440089844c00b1
:100b3000f6ff3900c639dd00830173000100320081
:100b4000130020008904d1000884d3000998a30071
:100b5000050032000800a7000300a0008904d100ae
:100b60000884d3008b05e8008904d1000884d300f1
:100b70000001eb000281d2000801070001f0a10092
:100b80000cf0a70001f0a000500137006420e10044
:100b9000520132000801be000200be00f7ff37001c
:100ba0006120e1004d0132006000b800f3ff370022
:100bb0000000200001f82700f0ff37001800200097
:100bc00057002000080453000d003d0006002000df
:100bd00097fc2f000740e1001e0034008482720061
:100be000610260008301d1000281d3008180d300c3
:100bf0000080d3000804e800f8ff3a004700200016
:100c00006104600005047400040464000d003200f7
:100c100061004000e080480060014900e081490037
:100c200003b8a500070032000603e8006538e100bc
:100c300004003a008301d1000281d3008180d300f7
:100c40000080d300f87f20000830e1000300350069
:100c5000080378006000b8006011b8004433dd007c
:100c6000f300b2008301730000000600680447002f
:100c70000294be000094be00fc0447008694be00af
:100c80008494be0009007800a702070008007800dd
:100c9000a502070099007800814f70000b003b000f
:100ca0000800be00920207004f00b10003003700a9
:100cb000f3ff2700f2ff2f006110b9004f06be00be
:100cc0004f05be004f04be000080fa000000060081
:100cd00081037800d70007000001be006000b80063
:100ce0000478a30013003a006220e10015003e00e2
:100cf0000d0039008301d1000281d3008180d3002f
:100d00008301d1000281d3008180d3008301d1000f
:100d10000281d3008180d3000538b000c42add00f1
:100d2000f300b2008381720007f0a70003f0a00077
:100d300000000600f3ff2700f2ff2f006110b9004a
:100d4000fbff370003ff2700f7ff370014002000e8
:100d50009c023700f4ff2f009a0237000001be000a
:100d6000b40007000470a70003f0a1006509b100fa
:100d7000160032000d0035006828e100060035003d
:100d8000f0ff2f00f1ff27000300e00013003b00fd
:100d9000010028000000050000004000818048009c
:100da0008502e900fcff3a0008003700f88f420096
:100db00002003c008000eb00000005008100d10033
:100dc0000080d3008502e800fcff3a000300e00049
:100dd00002003b0060001000e080180000000600e8
:100de0001400fa00889fbe008a9fbe008c9fbe0040
:100df0000004be000205be00680047000a90be0065
:100e00000890be00480207000070a7000bf0a10088
:100e10000bf8a30016003a009e0290003043200019
:100e200080825200b0fe2f000028e1000d003c003f
:100e3000b0fc2f000028e1000d0034001e099000d6
:100e40008e0890007e0090000501b0000201d100e4
:100e50008180d3000080d3008502e800fbff3a00c8
:100e600096ff3700010028000000200093ff3700a4
:100e70006000b80091ff37000001be006d00070060
:100e80000470a70003f0a10003f8a30013003a00c8
:100e90006509b10010003200090035006928e10041
:100ea000020035000100280000000500000040009d
:100eb000818048008502e900fcff3a00000006003e
:100ec000f88f4200050035008100d1000080d3007a
:100ed0008502e800fcff3a00000006008000eb00fd
:100ee000000005004f89de008201780050023700c3
:100ef000889fbe008a9fbe00010578000100e000c7
:100f00000400350008003c000000e0002000320032
:100f10000500370060001000e080180002003b0070
:100f200001f02c001a0037000004be006011b80068
:100f30006b0920000982cf00020039000882cf002f
:100f40000441b000694252000e00320008003b002c
:100f500082817100610164008904d1000884d3009a
:100f60008b05e8000442e800f9ff3a00050037006d
:100f70000804440089844c008b05e9000442e90020
:100f8000fbff3a00050007000af0a70001f0a000ef
:100f90004f05be004f04be00000006008100200087
:100fa000618055000b003d000b00200061fe2f000a
:100fb0000100e1001d0034008281710061016400c4
:100fc0008904d1000884d3000000e800faff3a0049
:100fd00071002000610064000300700002006000e6
:100fe0000900320061044400e0844c000988a50037
:100ff000050032008b05e8006808e10002003a00b5
:101000008904d1000884d300f20f20000258e100c7
:1010100005003d00c75ddd00f907b200898075005d
:1010200008007800000006000bf827008b0078000d
:1010300000000500c70ade00f107b200f50fb2009c
:1010400008003200e1cf4200020032000170a0002f
:1010500024000500810f7000010032000408050023
:1010600044000500810f700002003a0014000500e2
:101070008502e9000000400081c04800fcff3b0001
:101080000170a000240005000004be00e9ff070075
:101090000003be000405be000200be00e5ff07001d
:1010a000844f7500000006000200be006450e1009d
:1010b000050036006420e100020036000968a30044
:1010c00001003a000800be000160a0004f06780051
:1010d0004f05be004f04be0000000600f0ff2f00c9
:1010e000f1ff2700f9ff37002800fa00889fbe00b3
:1010f0008a9fbe008c9fbe0003866b00dbfe07004c
:101100000028a30064003a000128a30067003a0009
:101110000008a30062003a000108a30065003a003d
:101120001e009000be08900081064000ed3fb10017
:10113000f4805700ee019000111ab8008e0990005b
:10114000311bb8009e099000311cb800511db80039
:10115000f485570046000700fe0190003a000700a2
:101160008b85e8003e0007008e09900040000700d4
:10117000ee019000340007008b85e800380007007e
:101180008e099000400007009e0990001b18b800cf
:10119000890440000a854800fe01900034000700e1
:1011a0008b85e80038000700ee0190003000070052
:1011b0008e0990001b18b800890440000a85480079
:1011c0000a98a30008003a000402420085824a00ff
:1011d00006034b0087834b0008044c0089844c00b5
:1011e0000a054d008d06e9008482720085027300b5
:1011f0004c3add008502720001003200150020002b
:10120000443ade001400b2004538de00cb45dd0074
:101210000b007000c540de00cb4ddd008b80700000
:101220004549de00cb55dd000b017100c551de00e4
:101230000d03780061fe070003f0a1000cf0a70089
:1012400003f0a0009dfe37001b18b8008502400087
:1012500006834800e0834b0060044c000700370021
:101260001b18b8000603400087834800faff3700c8
:101270001b18b8008703400008844800e0844c0035
:1012800060054d00000006001b18b800080440006f
:1012900089844800faff37000108a30084fe3a0061
:1012a0005800be005801be00e3ff37000008a3004d
:1012b0007ffe3a0009047800f9ff3700889fbe00de
:1012c0008a9fbe008c1f78006fff070076ff3300f7
:1012d00003866c006450e100240032006420e100c9
:1012e000270032006150e100220032006120e1005d
:1012f000210032008b854200eb07b1000134b800b9
:10130000003ab8000804420089844a00013ab80053
:101310000030b8008880400009014a000400330012
:101320000000400081804800020149008b05e9006f
:10133000c909dd00830170000100320013002000a4
:10134000c814de004814dd004709de001200b200b8
:10135000c808de000884700010ff070001f0a1003b
:101360000cf0a70001f0a00058ff37006120e10059
:101370005aff32000801be000200be00f7ff37002e
:101380006150e100fcff3a0054ff3700889fbe0027
:101390008a9fbe008c9fbe00820578000004be00bc
:1013a00024ff07000800be006420e10007003900a8
:1013b00002003a00f1ff2700f0ff2f000160a000bb
:1013c0001202200072cb8800550037006120e10036
:1013d00003003a000b00a70001f82300500037007b
:1013e00001f0a100020021009364240057fe0700d1
:1013f0000800be0004003500b2fd2000930c24005c
:10140000420107000004be000005eb000b00a6002f
:101410004f0dde0001f0a1000004be0032982f0045
:1014200023ea2300a5ff07000001eb0003f02300df
:101430000b00a70003f82300e5fc070047fe0700a8
:101440000000a7000a00a200a9fe07000b00e000b0
:10145000030032000200200003f02300dbfc070041
:1014600001f0a2000006be00020020009304240048
:1014700092ff07000801be00d5fc0700809fbe0058
:101480000c00be0022a22a00d3a723008bff070076
:101490004f01be00cefc07000004be0001f0a10019
:1014a000020020000398230028fe07000800be0069
:1014b000190035000001be0080ff07000006be00d5
:1014c000b2c52900e36223007cff070022222b0023
:1014d000f3942b00befc07000c01be0077ff070051
:1014e000e273280083c02300b9fc07000c01be0092
:1014f00072ff070042aa2a00a3e22b00b4fc0700f7
:101500000c01be006dff07000801be006bff070065
:101510000801be00aefc07000a00a70001f0a2000f
:101520004f06be004f05be004f04be00000006007f
:10153000889fbe008a9fbe008c1f78000004be00fa
:10154000bcfe07000478a30026003a006120e100f9
:101550002500320009f8a30025003a006420e100cc
:1015600021003200f507b1000508a3000200320097
:1015700000004000818048006044b8000310200053
:10158000020020000000400081804800080544005f
:1015900089854c000a0541008b8549000a055000e9
:1015a0008b855800030033000a00be00020474005b
:1015b000838474008301d1000281d300830f710002
:1015c000f0ff3a008904d1000884d300600149008b
:1015d00082017800c1adde00fb07b0006ffe07009e
:1015e000bafe37000960a0000800be00b7fe370051
:1015f0001202200072cb8800f0ff2f00f1ff2700bd
:10160000b2fe37001400fa00889fbe008a9fbe0019
:101610008c9fbe000005be000206be0068004700a9
:101620000c90be000a90be003f0007006400e1007d
:101630001a00320016003e006100e1001a0032007c
:101640006e049000fe0490000e0b90009e0b900024
:101650006011b8009e0590000b38b100d501200044
:1016600082817100610164008703d1000683d30089
:101670008984d3000884d3008502e900f8ff3a008a
:1016800046fe07000df0a70001f0a0008bfd37001b
:10169000f1ff2700f0ff2f0088fd370001f8270039
:1016a00000002000f7ff37006000b800f5ff3700aa
:1016b0006022b800060220000000d0008180d20025
:1016c0000482d2008582d2000000a00002025200f3
:1016d00083825a00030031000202420083824a00e2
:1016e0000000a1000603e900f3ff3a000000060035
:1016f000e48240001078a30007003200640240003a
:101700001178a3003400be001401be0004003200b2
:101710000330a700000006003500be001501be0022
:101720000330a00000000600800078005002be00d8
:101730005003be004439de00f700b200f37f200002
:1017400003016100090032000218e10016003a00ae
:1017500085017200830173008381730000082000fb
:1017600015003a0040002000130037008501720088
:10177000830173008381730005003a0004a8be0052
:1017800006a8be00100020000b0037000201e9008f
:101790000402420085824a0006034b0087834b0007
:1017a0000748a300f9ff32000740a00004a8be00cc
:1017b00006a8be002000200080009800920098003b
:1017c00000000600889fbe008a9fbe00841f78002c
:1017d0002dfe07004f00780011003300f0ff2f00ae
:1017e000838f6c0006003b00040565000a00a7001b
:1017f0000800370009f0a60010002000080037009c
:10180000820f5400838f5c00030039001000200019
:1018100001003e000000200009f0a7000000ea00df
:101820004f05be004f04be000000e00000000600af
:10183000889fbe00830478000300e0002c00350080
:1018400003003c0000827000040271002600320098
:1018500036432000c50020008383cf000a003900f2
:101860000541b1008283cf00070039000541b10076
:101870008183cf00040039000541b1008083cf008f
:10188000010039000541b10085c353006022b80052
:10189000120032000a003b00848272006102600084
:1018a0008301d1000281d3008180d3000080d30066
:1018b0000603e8008743e800f7ff3a000700370017
:1018c00000004000818048000201490083814900f6
:1018d0000603e9008743e900f9ff3a00b7fc070077
:1018e00009f0a70003f0a0004f04be0000000600ae
:1018f00060001000e080180060011900e08119000c
:10190000d3ff3b00033e2c00f7ff3700040020000c
:1019100000003700889fbe008a9fbe008c1f7800a1
:101920004f26dd00d8fd0700dffd33006120e10018
:10193000430032006250e10041003e003e003900a9
:101940006420e1003c003200058255000f003b009e
:101950000402e80038003a00800f5300818f5b00da
:10196000350034000800be0003f0a10001f0a6001d
:1019700003f0a0000cf0a70095fb0700d3fd370093
:101980000603430087834b000c46460000055300c6
:1019900081855b00020033000a03be000c00a0003a
:1019a0000402e900f6ff3b008505780006024300cb
:1019b00087824b0004003a006000b80009f0a700dd
:1019c00001f0a000c1fd37000002520081825a00e0
:1019d0000704e000040033000603430087834b0044
:1019e0008b05e900faff3700090578000604be0000
:1019f0000203be006011b80068fd0700e00f52004e
:101a0000e08f5a000700350002003c000c08a300dc
:101a1000040032000601be0003f0a0000cf0a70095
:101a20006bfb07000a85680001f0a1000af0a7001f
:101a300001f0a000a5fd37000800be00a3fd37009f
:101a4000100220000cf0a60070cb8800a3fd370028
:101a5000000278008001eb0002003700015a780094
:101a60008301e800828f5100fcff3a00000006006d
:101a700080027800800178000202780007003700b9
:101a80000402e90031407800805978000004e00049
:101a900002003a000000eb0006003700028042001e
:101aa000808f5100f6ff3a00faff37008059eb00b3
:101ab0000000e800840f5000fcff3a0005007800a9
:101ac000000006000c00fa00889fbe0000047800a9
:101ad000cfb09700f0ff2700d0bf9f008004eb003d
:101ae00099bf9f0088bf9f00a8bf9f00200c2000c7
:101af000b0bf9f0078815700708057000800070032
:101b00000fb89700094878000fb8970008045000f4
:101b1000080078004f04be000080fa0000000600b4
:101b2000fe874700889fbe008a9fbe008c9fbe0034
:101b30008e1f7800f0b79f000107780082bf9f00da
:101b40000000eb00a0b79f009e0237008006eb006c
:101b500050c2b30080cf5000090032000100fb00ea
:101b6000ffb09700a2020700e10f4000950232008b
:101b7000afb097008100e800a1b79f009102370045
:101b80009e407800d0c2b30080cf50000c003200dd
:101b900007003c006d40500080cf50000a0032002a
:101ba0006b40400080cf50000e003a000800370024
:101bb00000c3b30080cf50000a003a00060037008f
:101bc0000d30a000050037000d00a0000300370015
:101bd0000d10a000010037000d20a0000e07e80046
:101be000e7ff37000d18a300010032000d00a1002f
:101bf0000d38a300010032000d20a1000100fb0000
:101c000002fd2f0002004000e90f50000d003e00d1
:101c10008001eb00c3b79f004fb29700ea20b800e5
:101c20009e00fb000100400002004000c0b79f0082
:101c30005e00fb0002004000e90f50000b003e0078
:101c4000f5ff37008002eb00c5b79f00a0c2b300cc
:101c500080cf500005003a000fbe97004c0078007e
:101c60008cbf9f00c0b79f000e07e8008000eb000c
:101c7000b1b79f00e0c2b3009e4f100018003a00b9
:101c80000de0a0008e00e80064405000914f10006d
:101c900002003200010778000c0037008fb997006e
:101ca0004302780083bf9f00b4b79f000e87e8000f
:101cb0000b003700bfb29700ea28b80001004000cf
:101cc00002004000b0b79f000e07e8009e00fb0036
:101cd00002fd2f0002804000e90f5000f5ff3600a2
:101ce000be407800e1d79f00c0c6b30080cf50004f
:101cf000220032000f003c006940500080cf5000ad
:101d00007700320004003c000104e00031023200a0
:101d10006b4050000f00370040c6b30080cf50002a
:101d2000930032006540400080cf50008b003a00a5
:101d30008f00370030c7b30080cf50001a00320048
:101d400007003c006440500080cf5000110032007a
:101d50000040e80080cf500080003a000f003700bc
:101d600050c7b30080cf5000800032006340400075
:101d700080cf500079003a000900370000002800a9
:101d80000d48a30001003a00000120008086760083
:101d9000d3ff37000d60a000750037000d50a00084
:101da0000d70a000720037000fbe97004c00780045
:101db0008cbf9f00000478000000e00001003a00a2
:101dc000485723008004eb00010037008104e8003d
:101dd00089007800088044001004e000fbff3a000e
:101de0003fb097000000e00003003200890f500070
:101df00001003100800478008000eb00e1af9f001b
:101e00004fb19700890f51000200360009005100c0
:101e1000e0af9f004368de00e10660001b003a006f
:101e20000d06780009003700ffb09700000220007f
:101e3000ef010700e10f400003003200afb197004f
:101e40008301e800a3b79f000c06e8006faa970083
:101e5000840f5600f4ff3a008082eb00e5af9f004c
:101e60000a003700880078003100fb000104780088
:101e7000ffb09700de010700e10f400003003200d1
:101e80002fb697000c06e800acb79f000900e900e8
:101e900080047800e10f4000f2ff3a000006eb00fa
:101ea0000d00e0000a003a00c6013700ffb09700bd
:101eb00000022000ce010700e10f400003003200c5
:101ec0002fb097000000e800a0b79f000c06e800c4
:101ed000efa89700810f5600f4ff3a00b9013700d0
:101ee0000fb997004200780082bf9f00cf80de00cc
:101ef00001017800820178000205be000004be00e6
:101f00000203be000002be004822de00482edd00b3
:101f100004027600e4d79f000d48a3000a003200b7
:101f20000404e00008003200e14f420006003200e5
:101f300071fd2f0001804700044878001840980088
:101f40002900200002003700f0d79f001900200070
:101f500072fd2f0002844700a1ff370063fd2f00b0
:101f600003844700190020009dff37000d0cb300cb
:101f70000d007800000cb20028003a000d00e000cf
:101f800005003d000fba97004405be004404be00a2
:101f900084bf9f00140037000d48a3000b003200df
:101fa0008fba97004500be0085bf9f004f89de00b5
:101fb000cf91de000002be000203780082037800a9
:101fc0000605be000404be00070037000fbe9700e0
:101fd0004c0078008cbf9f0000047800cfc4de0066
:101fe000090578008a057800e00f5400e08f5c0056
:101ff000e00f5d00e08f5d001f003d003d00b3007d
:102000006000b8006011b8000804500089845800ce
:102010000a0559008b855900170037000d00e000b4
:1020200005003d000fb897004005be004004be000b
:1020300080bf9f00100037000d48a300070032004a
:102040000fba97004400be0084bf9f006011b80023
:102050000205be000004be00070037008fba9700db
:102060004500780085bf9f0000047800090020002b
:102070000a0020000b0020003fb697000c00e00093
:1020800007003a00e00f5400e08f5c00e00f5d00b5
:10209000e08f5d0002003a0010002000b0b79f0002
:1020a0008d007800010cb200e1b79f000004200011
:1020b000808f50003000320003003c000100e0003f
:1020c0000800320040003700000820006fb1970080
:1020d000800f510014003200000c2000800f5100ce
:1020e00039003a0014c0b300454d23000b003700ff
:1020f0000400fb004300dd00050040005001be006d
:102100004000be000040e10001c8e10002d0e10053
:1021100003d8e1002b0039000442e800f44f5200dc
:10212000f3ff3a00270037000001200001002000e3
:102130006011b80014c0b3000040e10001c8e10024
:1021400002d0e10003d8e1001e0039004500200064
:102150000000d0008180d2000281d2008381d200b1
:102160008502e900faff3a000442e800f04f52000d
:10217000f1ff3a001300370080002000010020002a
:102180006011b80014c0b3000040e10001c8e100d4
:1021900002d0e10003d8e1000a0039003c00200031
:1021a0000000d0008180d2000281d2008381d20061
:1021b0000c06e900faff3a000442e800f54f52002d
:1021c000f1ff3a00e4d79f00efd097000100fb0039
:1021d0003fb19700820f500002003d00e2d79f0000
:1021e00004003700bfb19700808f510001003d000f
:1021f000b0b79f004fb297000400e0000400320027
:1022000063806600020032000402e900c4b79f0048
:102210000de8a3000b003200cfb297003fb6970045
:102220008c8f520003003c000000eb00c0b79f0001
:1022300004003700cfb097003fb197008280500074
:10224000c1b79f00efd197000300fb000002eb0035
:10225000d4af9f00cfb29700808f520002003400ad
:1022600000805200d0af9f000d28a300360032003e
:10227000e18066000d18a3000c003200d00220009f
:102280000100e00001003a000080e900ffb0970083
:10229000d7000700e10f40000e0032002fb6970074
:1022a0000c06e800acb79f000a0037000100e00010
:1022b00008003200ffb0970000022000cc000700a9
:1022c000e10f4000030032002fb097000000e8004b
:1022d000a0b79f00dfa897000100e0000f003200c8
:1022e0000006eb00ffb0970000032000c0000700cd
:1022f000e10f4000030032002fb197000201e80017
:10230000a2b79f000c06e800dfa99700830f5600d4
:10231000f4ff3a000002eb00d4af9f00bfb2970079
:102320004328dd00c14c23000100400090b79f000e
:102330004228dd006400500080b79f00e32eb80003
:10234000fcaf9f00840037005fa897000000e0000a
:1023500011003200688066000f003a000006780025
:10236000ffb0970000022000a1000700e10f40002d
:1023700003003200afb097008100e800a1b79f00d2
:102380000c06e8005fa99700820f5600f4ff3a00a0
:102390008001eb00d3af9f00e18066000d18a30021
:1023a0000c003200d00220000100e00001003a00e1
:1023b0000080e900ffb097008d000700e10f4000aa
:1023c000d6ff32002fb297000402e800a4b79f00a6
:1023d000d2ff37000100e000d0ff3200ffb09700cd
:1023e0000002200082000700e10f4000cbff320016
:1023f000afb297008502e800a5b79f00c7ff37007e
:1024000000042000efb09700808f500032003200af
:1024100003003c000100e000080032003f003700ec
:10242000000820006fb19700800f510011003200aa
:10243000000c2000800f510038003a009fb1970037
:102440003302be002303be000800be000a01be0026
:10245000d1010700a4002000050020006033b8006f
:10246000d401070004c3b30004424000e4d79f0036
:102470002a003700b5572300d5b79f000d58a30099
:1024800002003a00c0582300d0b79f00140020007b
:10249000050020006033b8008fb097008100e9008c
:1024a000050033000402d0008582d2000683d200ea
:1024b0008783d200f9ff37000800be000a01be0082
:1024c000b50107006f0060005fb197000000410098
:1024d0001040780010003700140020000500200094
:1024e0006033b8008c0178008301e90005003300f7
:1024f0000402d0008582d2000683d2008783d200f6
:10250000f9ff37000800be000a01be00a201070063
:10251000674060000043b000e0d79f006fd2970093
:102520000400fb00ffb0970031000700e10f4000fe
:1025300003003200afb297008502e800a5b79f0004
:102540001fb097006800500090b79f008fb09700b1
:10255000e480500081b79f0063065600d0ff2f0033
:102560003fb197008010b8007faa9700000042009a
:1025700063005000800f5600a1ff3a000d38a30001
:1025800010003200dfaa97000500e0000d003400c3
:102590000006eb00ffb097000002200014000700c7
:1025a000e10f4000030032002fb097000000e80068
:1025b000a0b79f000c06e800dfa89700810f560027
:1025c000f4ff3a00be407800e1d79f000104e0002c
:1025d0005efd3a002fb097004f0778004f06be000f
:1025e0004f05be004f04be00ef01b1000000060021
:1025f000889fbe000001780001047800b1009000bf
:102600000118a300400032000198a30003003a0023
:10261000180090000000e0003b003a000190a0008c
:102620003104980082047800f90fb200180090007d
:102630000000e00002003a0028009000000c780042
:10264000ea8f540006003a00380090000078a3009a
:1026500003003a0088007800d0002000e4ff070063
:10266000180290006121b90058009000e800900025
:10267000800f5100818f59000b0032000400e800e8
:10268000100498001800780009587800000c7800b1
:1026900011c0b300805c230001487800ea8f540029
:1026a00006003200190037008800780009407800e1
:1026b00019000700800478001400370038009000eb
:1026c0000088a3001100320018019000a8009000bb
:1026d000480090005300070098009000810f5000c0
:1026e00004003200380090000003b300300498006a
:1026f0008084eb000000eb0010049800280090009c
:10270000000c7800010037008084eb00090078009d
:102710004f04be00000006000200fa00889fbe00c1
:10272000a0ff9f0001047800b100900081047800b0
:102730000904b200020032000000fb00360037003e
:102740000118a30005003a000103b300310498000a
:10275000190498000080eb002f003700580090000b
:102760000000e00006003a0048009000120020003f
:10277000e68057002b00070019049800240037005a
:10278000280090000000e00008003a00405c2300b0
:1027900020049800000c78002000200050049800cd
:1027a000100498000130a000310498001801900036
:1027b000a8009000480090001a0007002800900030
:1027c000000c78000080eb001004980018007800de
:1027d000aff8970001587800000c78002ff89700a8
:1027e000ea4f50000a003a00380090000088a30029
:1027f0000700320018019000a800900048009000e7
:102800000800070019049800a8009000010c780047
:10281000aff897000100fb004f04be000080fa00f3
:10282000000006000a00fa0080017800e20f500064
:1028300027003e0050ae8100e10f5000080032003a
:10284000802320000000e000050032000423200067
:102850002523200046232000800178000400370053
:10286000042220002522200046222000832220006e
:10287000144090000004e000040035008009eb00e3
:10288000144090000074a000104298001540900081
:102890000028a30003003a00154090000024a00087
:1028a000904298008001eb00060037001540900030
:1028b0000008a300fdff32003100fb00000b780090
:1028c0008301e800828f5100f8ff3a0008003700ca
:1028d00030002000b0bf9f00c3bf9f00d1bf9f004a
:1028e000e2bf9f006a80570000c0da006fb997000e
:1028f000020078000080fa0000000600881f7800bf
:10290000000478005001be004000be0004004000fa
:10291000858048000601490087814900009cbe006f
:102920000294be000400e1000588e1000690e10089
:102930000798e10002003100680044001008e80038
:102940004f04780000000600f4874700889fbe000f
:102950008a9fbe008c9fbe008e1f78000205be00bd
:102960000004be00d4b79f00e5b79f00f6b79f00f4
:1029700087bf9f000000eb00c0b79f00b0b79f006b
:10298000a0b79f0090b79f0080b79f000d04200064
:10299000bfb097004fb09700000140000000e0007a
:1029a0000f003d004f08de0000007100c0b79f001f
:1029b0004d00070001003d001200200050000700fc
:1029c00001003d00120020005500070061000700d3
:1029d000660007000f004000c8ff07002200370014
:1029e0004f08de0000067100ccb79f003e000700d4
:1029f00001003d00120020004100070001003d00e1
:102a00001200200046000700520007000fb2970096
:102a10009fb297002fb39700bfb3970059000700ec
:102a20000000520081805a0002015b0083815b003c
:102a300080b79f0091b79f00a2b79f00b3b79f00d8
:102a40000007eb004f0007000020e10001a8e100b3
:102a500002b0e10003b8e100010031001e002000d7
:102a60000e005600c0b79f004fb297000400e00070
:102a70000700350010002000010020006011b800a0
:102a800008047000898470000a0571008b8571004c
:102a90008d06e900beff3a000400e00003003d009f
:102aa000320007000f00400094ff07004fa8970076
:102ab0000000e00004003a000fb497009fb49700b4
:102ac0002fb59700bfb597000800be000a01be00f1
:102ad0004f0778004f06be004f05be004f04be00f2
:102ae0004f01b100000006000180400090b79f0038
:102af0000001eb008fb097000100e000000006002d
:102b00000200700090b79f000180400080b79f00d6
:102b10000001eb00ffa897000100e00000000600a4
:102b20000200700080b79f00018040006faa9700ec
:102b3000cf20de0001007000f0af9f0004024200d1
:102b40000800be000a01be004f18de00000272003d
:102b500000000600e4af9f000804440089844c0094
:102b60000a054d008b854d00000006003fb297001e
:102b7000cfb297005fb39700efb3970000fe2f002e
:102b8000000006003fb09700cfb097005fb19700fc
:102b9000efb1970000000600881f780018002000a1
:102ba000881f780068ff07008f87e9004f047800ce
:102bb00000000600801feb0063ff07008f87e9001d
:102bc00000000600889fbe008a9fbe008c1f780010
:102bd0000205be000004be00e00f5000e08f580068
:102be000e00f5900e08f59000c003d006000b80074
:102bf0006011b80008045000898458000a05590083
:102c00008b8559001c0020001f00070008003d00b4
:102c1000180007000006eb00050037000006eb0077
:102c20001900070002003d000f0007001c002000f3
:102c30000800be000a01be00d7ff07000203be0065
:102c40000002be000c00e000010032000600070098
:102c50000400be000601be004f0678004f05be000e
:102c60004f04be00000006006000b8006011b8000c
:102c70000000370004025000858258000603590006
:102c80008783590000000600e00f5200e08f5a00d1
:102c9000e00f5b00e08f5b0000000600889fbe0035
:102ca0008a9fbe008c1f78000205be000004be0093
:102cb000e00f5000e08f5800e00f5900e08f5900fe
:102cc0000a003d006000b8006011b8000804500020
:102cd000898458000a0559008b8559001c00200082
:102ce0001800070007003d00050037000006eb0054
:102cf0001400070003003d006000b8006011b80038
:102d0000150007000800be000a01be00a9ff070069
:102d10000203be000002be000c00e000030032000f
:102d20006000b8006011b8000b0007000400be008e
:102d30000601be004f0678004f05be004f04be00de
:102d400000000600e00f5200e08f5a00e00f5b0029
:102d5000e08f5b00000006000402500085825800ee
:0c2d60000603590087835900000006009c
:020000040000fa
:020000040002f8
:04afe000deff000090
:020000040000fa
:020000040002f8
:04afe8007fff0000e7
:020000040000fa
:020000040002f8
:04afec007bff0000e7
:020000040000fa
:020000040002f8
:04aff00078ff0000e6
:020000040000fa
:020000040002f8
:04aff400cfff00008b
:020000040000fa
:100008006e720000747200007a7200008072000044
:10001800867200008c7200009272000098720000d4
:10002800e8020000e8020000e80200004c6f00004f
:10003800e8020000e8020000e8020000e802000010
:10004800e8020000e8020000e8020000245e000068
:10005800405f0000e8020000e8020000e80200003b
:10006800e8020000e8020000e8020000e8020000e0
:10007800e8020000e8020000e8020000e8020000d0
:10008800e8020000e8020000e802000046710000f3
:100098006c660000e8020000e8020000e8020000c8
:1000a800e8020000e8020000e8020000e8020000a0
:1000b800e8020000e8020000e8020000e802000090
:1000c800e8020000e8020000e8020000e802000080
:1000d800e8020000e8020000e8020000e802000070
:1000e800e8020000e8020000e8020000e802000060
:1000f800e8020000e8020000e8020000e802000050
:10010800e8020000e80200009c720000e80200001b
:10011800e8020000e8020000e8020000e80200002f
:10012800e8020000e8020000e8020000a8720000ef
:10013800e8020000e8020000e8020000e80200000f
:10014800e8020000e8020000e8020000e8020000ff
:10015800e8020000e8020000e8020000e8020000ef
:10016800e8020000e8020000e8020000e8020000df
:10017800e8020000e8020000e8020000e8020000cf
:10018800e8020000e8020000e8020000e8020000bf
:10019800e8020000e8020000e8020000e8020000af
:1001a800e8020000e8020000e8020000e80200009f
:1001b800e8020000e8020000e8020000e80200008f
:1001c800e8020000e8020000e8020000e80200007f
:1001d800e8020000e8020000e8020000e80200006f
:1001e800e8020000e8020000e8020000e80200005f
:1001f800e8020000e8020000e8020000e80200004f
:10020800e8020000e8020000e8020000e80200003e
:10021800e8020000e8020000e8020000e80200002e
:10022800e8020000e8020000e8020000e80200001e
:10023800e8020000e8020000e8020000e80200000e
:10024800e8020000e8020000e8020000e8020000fe
:10025800e8020000e8020000b4720000e8020000b2
:10026800e8020000e8020000e8020000e8020000de
:0c027800e8020000e8020000e8020000bc
:020000040000fa
:102d6c007b25000030340000583a0000253000006c
:102d7c003258000025300000325800002530000089
:102d8c00345800003a000000253000003458000090
:102d9c007d0000007b25000030340000583a000014
:102dac002530000032580000253000003258000059
:102dbc002530000034580000253000003458000045
:102dcc003a0000007b25000030340000583a000027
:102ddc002530000032580000253000003258000029
:102dec002530000034580000253000003458000015
:102dfc000030000031320000333400003536000062
:102e0c0037380000394100004243000044450000bf
:102e1c0046000000616c0000676f000072690000e2
:102e2c00746800006d0000006972000000750000fd
:102e3c00760000006d660000696500006c6400009f
:082e4c005f78000000000000a7
:020000040000fa
:102e54001200fa002200f8002400f8002600f8000e
:102e640030079800410798001201c3000000eb00ee
:102e7400200798000a0037002e0090000000400050
:102e8400800078003e009000008040001000780030
:102e94000000c9002e0090000000e8002007980000
:102ea400ae0090004e009000808f5000f2ff390079
:102eb4000000cc00200798002e009000cf80de0098
:102ec4000af8070070079800010f98004e00900060
:102ed400cf80de0005f807005007980061079800ce
:102ee4004e0090000000e00007003d0002002000ba
:102ef400037824005e009000ee00900033f6070093
:102f040050079800610798005e019000ee01900060
:102f14007e0090008e089000e5f60700008fbe004a
:102f24001e00be002600f9002400f9002200f9006a
:102f34000080fa00000006002000fa00000f98004c
:102f4400120f9800230f9800310f98000e0890007c
:102f5400600798001e089000ae0890007ef70700f6
:102f6400500798000000eb00400798006000b8008c
:102f740020079800310798000000eb0070079800c4
:102f8400150037007e0090000000400080007800ab
:102f94006e00900000804000900078005e00900079
:102fa4000080500040079800ce0090004e00900032
:102fb4000089b9002e009000be009000000041007e
:102fc4008180490020079800310798007e00900016
:102fd4000000e80070079800fe0090003e08900092
:102fe400808f5000e7ff39002e009000be00900053
:102ff400bef70700600f9800710f98003e0890001c
:10300400cf80de00b9f70700400f9800510f9800f9
:103014003e0890000000e00007003d000200200090
:10302400037824004e089000de089000e7f50700be
:10303400400f9800510f98004e099000de0990004f
:103044006e089000fe08900099f6070037f9070013
:10305400008fbe001e00be000080fa0000000600c3
:103064001a00fa00881f78008a9fbe00100f98008b
:10307400210f98001e0890006c0040007007980013
:103084001e0890001000be0033f707006007980088
:10309400009a210050079800a0cc8000b1cc800099
:1030a4002df70700400798001e0890001001be008d
:1030b4001e0890006c004000ae0890009eff0700c0
:1030c40025f7070030079800c0cc8000d1cc8000e1
:1030d40021f70700200798006000b800008fbe00a9
:1030e4000000eb00000f9800160037000e08900057
:1030f40000004000800078005e00900000804000e6
:10310400900078004e009000008150000e0890005e
:1031140000004000800078007e00900000804000a5
:10312400900078006e009000008050000280b9008a
:103134001e0f40005e9748000e0890000000e80053
:10314400000f98008e0890002e089000808f500089
:10315400e6ff39003e0090000000e000030032006a
:103164002e0090000000e00004003a006000b80067
:10317400300f9800410f98001b0037001e00be005e
:103184005af7070002002000832c24004af80700a5
:103194000005be002e0890006103b800be00900038
:1031a4002e009000008ab9008600780004007800a0
:1031b4000009b8008534b800030078000800400016
:1031c4008722b80004004000800178000200be009d
:1031d40046f707000001be000a00be0034f60700ef
:1031e400300f9800410f98003e089000ce089000e0
:1031f4004f05be004f0478000080fa00000006006e
:103204005403fa00881f7800101f9b00211f9b00a5
:10321400321f9b006000b8006011b800500798008e
:103224006107980072079800030f98000040eb00b4
:10323400004f98000040eb00004f98004b0037000f
:103244000e4890000080fb00102f9b000e48900059
:103254000080fb0000004000800078001e189300ee
:1032640000804000100478006140b9001ff7070097
:1032740070279b00012f9b000800e00007003d0021
:1032840002002000037824007e2093008e289300ff
:103294004ef5070070279b00012f9b000e489000fd
:1032a4000080fb0000004000800078002e1893008e
:1032b40000804000100478006140b9000bf707005b
:1032c40050279b0061279b000800e00007003d0099
:1032d40002002000037824005e209300ee20930077
:1032e4003af5070050279b0061279b005e2193005d
:1032f400ee2193007e2093008e289300ecf50700c6
:103304000001be00f20047001e2a93004220dd00a7
:10331400010040000288be000e4890000080fb00bf
:10332400f20047004200dd00010040001000be0032
:1033340066f607000002be000203be005e009000b5
:10334400ee0090007e0190008e099000a1f4070029
:10335400500798006107980072079800030f9800bf
:103364000e4890000040e800004f98000e4890007e
:103374008080fb003e189300808f5000b0ff39001e
:103384003e189300cf80de00d5f6070010279b007f
:1033940021279b0032279b0043279b003e18930064
:1033a4000000e0000c003d006022b8000600200090
:1033b400070f24001e209300ae2093003e219300ab
:1033c400ce21930083f4070010279b0021279b0044
:1033d40032279b0043279b001e229300ae229300ba
:1033e4003e239300ce2393005e009000ee009000f5
:1033f4007e0190008e09900053f5070080f80700c5
:1034040020079800310798006000b8006011b800e8
:10341400500798006107980072079800030f9800fe
:103424000040eb00004f98001a0037000e4890004f
:103434000080fb00f20047004200dd000100400074
:103444001000be002e019000be019000def40700c3
:103454000001be0098f707001cf607000002be003a
:103464000203be005e009000ee0090007e0190001a
:103474008e09900057f407005007980061079800e0
:1034840072079800030f98000e4890000040e8006f
:10349400004f98000e4890008080fb003e18930077
:1034a400808f5000e1ff39003e189300cf80de008a
:1034b4008bf60700501f9b00611f9b00721f9b002f
:1034c40003279b003e1893000000e0000c003d0021
:1034d4006022b80006002000070f24005e18930045
:1034e400ee1893007e1993008e21930039f407009f
:1034f400501f9b00611f9b00721f9b0003279b00b2
:103504005e1a9300ee1a93007e1b93008e239300a1
:103514005e009000ee0090007e0190008e09900005
:1035240009f5070036f80700008fbe00d2cc2c0046
:10353400c3dc23001e00be0003f607000000e00009
:10354400010035000300370010002000401f9b00dd
:10355400020037000002eb00441f9b004e1893004a
:103564004f0478000080fa0000000600b800fa005a
:10357400881f7800a8cb80006140b9005bf6070083
:1035840060979800719798000800e00007003d00dc
:1035940002002000037824006e909000fe909000ba
:1035a4008af4070060979800719798006e919000d4
:1035b400fe9190006e909000fe90900083f40700be
:1035c400a29b2400c3e823003bf70700bff50700d4
:1035d4002097980031979800429798005397980045
:1035e400b8cb80006140b90040f60700009798000e
:1035f400119798000800e00007003d000200200039
:10360400037824000e9090009e9090006ff40700c1
:1036140000979800119798000e9090009e9090004b
:10362400aaf507006466260065662600666626001d
:10363400a7f62300abf607000002be000203be009b
:103644002e909000be9090004e919000de919000dc
:10365400bdf40700e1f507005017980098cb8000ef
:103664006140b90021f60700608f9800718f9800bf
:103674000800e00007003d00020020000378240059
:103684006e889000fe88900050f40700608f9800c8
:10369400718f98006e899000fe8990006e8890006a
:1036a400fe88900049f40700a29b2400c3e823008d
:1036b40001f7070085f50700208f9800318f9800e7
:1036c400428f9800538f9800b8cb80006140b900b6
:1036d40006f60700008f9800118f98000800e0009c
:1036e40007003d0002002000037824000e889000ab
:1036f4009e88900035f40700008f9800118f980081
:103704000e8890009e88900070f50700646626007d
:103714006566260066662600a7f6230071f6070094
:103724000002be000203be002e889000be889000f6
:103734004e899000de89900083f40700a7f5070006
:10374400401798005e109000cf80de00e7f5070078
:1037540060879800718798005e1090000000e00078
:1037640007003d0002002000037824006e809000d2
:10377400fe80900015f40700608798007187980018
:103784006e819000fe8190006e809000fe8090001b
:103794000ef40700b2fd200093042400c6f60700cf
:1037a4004087980051879800c8cb80006140b900d9
:1037b400cef5070020879800318798000800e000c4
:1037c40007003d0002002000037824002e809000b2
:1037d400be809000fdf30700208798003187980091
:1037e4002e819000be8190004e809000de8090007b
:1037f400b1f6070020179800311798002e1090009a
:10380400be10900072712b00138d2300aaf60700de
:1038140020179800311798004e109000cf80de00da
:10382400b2f5070000879800118798004e109000a9
:103834000000e00007003d0002002000037824009f
:103844000e8090009e809000e0f3070000879800af
:10385400118798004e109000cf80de00a3f507007a
:10386400603f9800713f98004e1090000000e00007
:1038740007003d0002002000037824006e38900009
:10388400fe389000d1f30700603f9800713f980024
:10389400d2cc2c00c3e423006e389000fe38900094
:1038a40085f607000001be000e8090009e80900007
:1038b400c6f307000001be00c4f30700b2fd2000f8
:1038c400930424007cf60700403f9800513f980081
:1038d400c8cb80006140b90084f50700203f980000
:1038e400313f98000800e00007003d00020020007e
:1038f400037824002e389000be389000b3f30700fc
:10390400203f9800313f98002e399000be39900036
:103914004e389000de38900067f6070000179800d4
:10392400111798000e1090009e10900072712b00d9
:10393400138d230060f607000017980011179800f4
:10394400c8cb80006140b90068f50700003f9800cb
:10395400113f98000800e00007003d00020020002d
:10396400037824000e3890009e38900097f30700e7
:10397400003f9800113f9800e25b2b00439a23001c
:103984000e3890009e3890004bf607000001be00f0
:10399400000020000104240045f4070035f5070069
:1039a400700f98007e089000cf80de004ff507006e
:1039b40060379800713798007e0890000000e0009e
:1039c40007003d0002002000037824006e309000c0
:1039d400fe3090007df3070060379800713798003f
:1039e4007e089000cf80de0040f507004037980045
:1039f400513798007e0890000000e00007003d0069
:103a040002002000037824004e309000de30900045
:103a14006ef307004037980051379800a2702d00cc
:103a240033ca23004e309000de30900022f60700a7
:103a34000001be006e309000fe30900063f307007a
:103a44000cf50700700f98005e10900070ae8800af
:103a54000000eb0090ae88000018200080ae8800c3
:103a64002e109000be10900020ae880031ae880069
:103a74000e1090009e10900000ae880011ae8800d9
:103a8400c0cb800060ae8800000020000104240048
:103a940040ae880051ae880000cc8000b0ae8800f3
:103aa40018cc80006140b90010f507002037980059
:103ab400313798000800e00007003d0002002000b4
:103ac400037824002e309000be3090003ff30700ae
:103ad40020379800313798002e309000be30900087
:103ae400e0ae8800f1ae880028cc80006140b900c7
:103af400fef4070000379800113798000800e00032
:103b040007003d0002002000037824000e309000de
:103b14009e3090002df3070000379800113798006d
:103b24000e3090009e309000c0ae8800d1ae880068
:103b340040cc800061406000e0f5b70040cc8000dc
:103b44004300de0061406000e1f5b70000b32100ee
:103b540020af88000000eb0010af8800805b2100dc
:103b6400b0250700e8cb80006140b900dff407000e
:103b7400009f9800119f98000800e00007003d0096
:103b840002002000037824000e9890009e98900074
:103b94000ef30700009f9800119f98000e98900064
:103ba4009e989000500f9800610f98005e08900056
:103bb400ee0890000001be0004f30700b2fd2000ef
:103bc40093042400bcf50700602f9800712f98001f
:103bd400c8cb80006140b900c4f40700402f9800ae
:103be400512f98000800e00007003d00020020006b
:103bf400037824004e289000de289000f3f207009a
:103c0400402f9800512f98004e299000de299000f3
:103c14006e289000fe289000a7f5070072712b0013
:103c2400138d2300a4f50700300f9800410f98006e
:103c340002002000031224003e089000ce089000e9
:103c44009df50700100f9800210f98005e08900062
:103c5400ee08900087f40700e0af8800fe089000ab
:103c640001b0880000302000f0af88003e089000ca
:103c7400ce08900090af8800a1af88001e08900085
:103c8400ae08900070af880081af8800000020006b
:103c940001042400b0af8800c1af8800c0cb80000d
:103ca400d0af880000cc800020b0880018cc800001
:103cb4006140b9008df40700202f9800312f98003f
:103cc4000800e00007003d00020020000378240003
:103cd4002e289000be289000bcf20700202f9800e8
:103ce400312f98002e289000be28900050b08800f4
:103cf40061b0880028cc80006140b9007bf40700e3
:103d0400002f9800112f98000800e00007003d00e4
:103d140002002000037824000e2890009e289000c2
:103d2400aaf20700002f9800112f98000e28900087
:103d34009e28900030b0880041b0880040cc8000bc
:103d4400614060000ef6b70040cc80000000d10056
:103d5400614060000ff6b7000033220090b0880085
:103d64000033230080b08800605e21002d25070009
:103d7400f8cb80006140b9005cf40700209f9800f4
:103d8400319f98000800e00007003d000200200079
:103d9400037824002e989000be9890008bf20700c0
:103da400209f9800319f98002e989000be98900014
:103db40070079800010f98007e0090008e08900014
:103dc4000001be0081f20700b2fd2000930424002c
:103dd40039f507006027980071279800c8cb800048
:103de4006140b90041f4070040279800512798002a
:103df4000800e00007003d000200200003782400d2
:103e04004e209000de20900070f2070040279800ba
:103e1400512798004e219000de2190006e209000e2
:103e2400fe20900024f5070072712b00138d2300ef
:103e340021f5070050079800610798000200200050
:103e4400031224005e009000ee0090001af50700b3
:103e540030079800410798007e0090008e0890007b
:103e640004f4070050b18800fe08900071b1880086
:103e74000030200060b188005e009000ee009000e9
:103e840000b1880011b188003e009000ce0090007f
:103e9400e0b08800f1b08800000020000104240094
:103ea40020b1880031b18800c0cb800040b18800c7
:103eb40000cc800090b1880018cc80006140b9002b
:103ec4000af4070020279800312798000800e00032
:103ed40007003d0002002000037824002e209000fb
:103ee400be20900039f2070020279800312798005f
:103ef4002e209000be209000c0b18800d1b188006f
:103f040028cc80006140b900f8f30700002798002e
:103f1400112798000800e00007003d00020020007f
:103f2400037824000e2090009e20900027f20700c2
:103f340000279800112798000e2090009e209000e2
:103f4400a0b18800b1b1880040cc8000614060001d
:103f54003cf6b70040cc80004200de0061406000c7
:103f64003df6b70000b3220000b288000000eb0069
:103f7400f0b1880040612100aa240700c8cb80006a
:103f84006140b900d9f30700601f9800711f9800c1
:103f94000800e00007003d00020020000378240030
:103fa4006e189000fe18900008f20700601f980039
:103fb400711f98006e199000fe19900000002400f3
:103fc400c1612400baf20700aaf3070030b48800e4
:103fd40010c0b3008ff5b700f1cc8000c00c2000f6
:103fe400808f50007300320030b480004200de0045
:103ff400100798001e009000790f4000409921009e
:10400400c21920008000eb0090f607000000eb00ce
:1040140020079800530037002e0090009e0f500098
:10402400030036002e0090009e0f50002b00390034
:10403400ae009000511f98002e009000cf80de004b
:10404400aaf30700301f9800411f98002e0090002b
:104054000000e00007003d00020020000378240077
:104064003e189000ce189000d8f10700301f980039
:10407400411f9800d2df2a0003d023003e1890008d
:10408400ce1890008cf407002df2070002002000e7
:104094000348240088f407002ff30700201f98002a
:1040a400ae1990000300e00003003d002e189000bc
:1040b4000000ea00201f98002e199000de189000de
:1040c400de18900001804000010320008080400041
:1040d400009721000080400002087800a0cc8000f6
:1040e400b1cc8000001f9800111f98002e00900092
:1040f4000000400001032000808040000097210060
:1041040000804000100478006140b90077f3070094
:1041140060179800711798000800e00007003d0040
:1041240002002000037824006e109000fe1090001e
:10413400a6f1070060179800711798006e1190009f
:10414400fe1190000e1890009e1890009ff1070039
:10415400a0cc8800b1cc88002e0090000000e800bc
:1041640020079800ae009000700c2000808f500053
:10417400a9ff3600a0cc8000b1cc80000200200052
:10418400833424004af20700a0cc8800b1cc880014
:10419400a2cc8000b3cc8000810c2000009a2100c6
:1041a40065fb0700c0cc8800d1cc88000000eb0080
:1041b400f0cc8800030007004f0478000080fa0068
:1041c400000006000000fa0005e1a9008000eb00f1
:1041d40040102000010878000421a90004c1a900ae
:1041e4004010200090407800f0ccb30080c0600004
:1041f40040102000014878008000eb0000102000ef
:1042040001087800017721002010200001087800bf
:104214001084200090407800f0c8b30000c0600013
:1042240001c6b3000140700011842000804878006a
:104234000068a9002068a80005e1a8000080fa0031
:10424400000006000000fa0086d5bf009ef5b70006
:104254000080eb00e0ac880086d5bf0046f6b700ce
:104264000002200020b2880086d5bf004cf6b700bb
:104274001002200050b28800b6d8bf00bef5b700c7
:1042840000012100e0ad8800005c21006011b8004d
:104294000288be00640040006011b8000288be00bd
:1042a400640040006011b8000288be006400400051
:1042b4006011b8000288be00640040006011b800bc
:1042c4000288be00640040006011b8000288be008d
:1042d400640040006011b8000288be006400400021
:1042e4006011b8000288be00640040006011b8008c
:1042f4000288be00640040008000eb0001087800e2
:1043040092d6bf00ecf5b700e000210050af880062
:10431400e05e21006011b8000288be006400400025
:104324006011b8000288be00640040006011b8004b
:104334000288be00640040006011b8000288be001c
:10434400640040006011b8000288be0064004000b0
:104354006011b8000288be00640040006011b8001b
:104364000288be00640040006011b8000288be00ec
:10437400640040006011b8000288be006400400080
:104384008000eb00010878005cd7bf001af6b70084
:1043940030012100c0b08800c06121006011b80064
:1043a4000288be00640040006011b8000288be00ac
:1043b400640040006011b8000288be006400400040
:1043c4006011b8000288be00640040006011b800ab
:1043d4000288be00640040006011b8000288be007c
:1043e400640040006011b8000288be006400400010
:1043f4006011b8000288be00640040006011b8007b
:104404000288be00640040008000eb0001087800d0
:1044140092d6bf00a6f5b700a000210020ad880009
:104424005cd7bf00aef5b700b000210060ad8800d6
:1044340092d6bf00b6f5b700a0002100a0ad880059
:10444400231f07000004e0000700320060cc800056
:104454000010a00060cc88000000eb0050cc880065
:104464000040eb0076210700806421004b23070005
:104474000080fa00000006001000fa00404f980087
:104484000040eb00204f98004e4890000004e000ec
:1044940005013a008ed5bf000004e00002013a0095
:1044a40080b2800067006000e40f5000d5003a003d
:1044b40060982100104078000080fb00700798008d
:1044c4007e009000e10f5000040032007e00900056
:1044d400e20f5000140032005100370070b2800027
:1044e40067006000e40f500009003a0080b28000c9
:1044f4004800de00674060000080fb000000e00030
:104504000300340010c0b300204f9800c8003700e7
:104514004f0f0700e24f5000c500360010c0b30033
:10452400204f9800c200370070b28000670060001e
:10453400e40f500009003a0081b2800000702000ae
:104544008080600000402000808f500003003a000b
:1045540010c0b300204f9800b500370081b280002e
:10456400007020008080600000402000808f500098
:1045740029003a0090b3800001202000010060006f
:104584000000e0001b00320090b3800001402000d6
:10459400010060000000e000a500320090b380003c
:1045a40001102000010060000000e0000c00320057
:1045b4007336a90010c0b300590f070081b2800000
:1045c400007020008080600000402000808f500038
:1045d40097003a0010c0b300204f980094003700b1
:1045e4007336a90010c0b3004d0f0700d0000700b8
:1045f4008f003700160f07000004e0008c00320023
:104604000040eb0073f6b7007336a80000102000da
:104614000f07070086003700c50007008400370035
:1046240070b2800067006000e40f500009003a0097
:1046340081b2800000702000808060000040200073
:10464400808f500003003a0010c0b300204f980040
:104654007700370081b28000007020008080600005
:1046640000402000808f500060003a00f80e0700e0
:1046740072f6b70072d6bf000004e0006c0032008e
:1046840020042000104078000080fb004500de007c
:104694000080fb00400798002005200010007800ef
:1046a40010079800ff3ffc00200420009040780091
:1046b40000ceb30080c070002004200001487800c0
:1046c4009e0090002005200001087800810c200045
:1046d4000033230062fa070020079800310798008e
:1046e4002005200010007800000f7800ff3ffc0038
:1046f4004e00900067406000c500dd0020042000eb
:10470400104078007f4060000140700021042000c8
:10471400804878009e007800200520000108780079
:1047240050ac800061ac800062004000e080480032
:1047340050ac880061ac880002002000032a2400e9
:104744002e009000be00900081f107000000e00000
:1047540001003d000300370010c0b300204f980053
:104764001c0037000040eb00504f9800020020006e
:10477400832424002e009000be00900074f10700f2
:104784000000e00001003c000200370010c0b3004c
:10479400504f98005e4890000004a2000004e0001e
:1047a4000b003a0090b38000610060000000e0005c
:1047b4000700320090b38000620060000000e00057
:1047c4000300320010c0b300204f980001003700ee
:1047d400570007000000eb00c09989006000b80092
:1047e40080998900919989001100370070b2800086
:1047f400670060000000e0000d003a004c00070074
:104804000b00370070b28000670060000000e00019
:1048140007003a0081b280000070200080806000b0
:1048240000402000808f500001003a004000070043
:104834002e489000e14f50003b003a0030c0b300d6
:104844000024070010c0b3008ef5b7009015a8002f
:10485400426721006000b8000089be006401410085
:104864006000b8000089be00640141006000b80027
:104874000089be00640141006000b8000089be00e8
:10488400640141000000eb000009780010c0b3008f
:1048940092f5b700a0322000a0ac880020002000d0
:1048a400b0ac8800200037004e489000e44f500020
:1048b40005003a0040c0b300e22307000040eb00cb
:1048c4008ef5b700180037004e489000e24f5000b4
:1048d40015003a0080b2800001022000010060004f
:1048e4000000e0000a0032001000200060a68900e9
:1048f4009015a900002020005506070042d9bf00ea
:104904000004e000020032000040eb0042f9b7006e
:104914000040eb0092f5b7000000eb00a0ac88006b
:104924000000eb00b0ac88000080fa000000060034
:104934000000fa0080b2800067006000e40f5000bd
:1049440019003a00c0b380000000e00007003a00fc
:1049540030b48000b0b3880010002000c0b38800d9
:104964000000eb00a0b388000f003700b0b3800054
:104974000000e0000c003a00a0b380000000e80052
:10498400a0b3880030b48000b0b38800a0b3800026
:10499400e20f500004003600005a210021220700d3
:1049a4000000eb00a0b3880081b2800000702000fa
:1049b4008080600000402000808f500019003a0081
:1049c400f0b380000000e00007003a0030b480003b
:1049d400e0b3880010002000f0b388000000eb0072
:1049e400d0b388000f003700e0b380000000e0007f
:1049f4000c003a00d0b380000000e800d0b3880077
:104a040030b48000e0b38800d0b38000e20f5000df
:104a140004003600805a2100022207000000eb0047
:104a2400d0b388000080fa00000006001000fa00ed
:104a3400881f780040079800510798006207980083
:104a4400634f98000000eb00300798000000eb0073
:104a5400200798006e489000e84f500017003a0075
:104a64004e009000100798000000eb00200798000b
:104a74000d003700ae0090001e009000008440003e
:104a8400be0090005e009000121a0700004c7800ef
:104a94003e0090000080e800300798002e0090004f
:104aa4000000e80020079800ae0090006e0090001f
:104ab400808f5000efff3900190037006e489000d6
:104ac400f04f500016003a004e009000000f78009e
:104ad4000000eb00200798000d0037002e00900026
:104ae400000040001e044000be0090005e009000e4
:104af4003d1a0700000c78003e009000640040005e
:104b0400300798002e0090000000e800200798006d
:104b1400ae0090006e009000808f5000efff3900cf
:104b24004f0478000080fa00000006005400fa00e8
:104b3400881f7800420420000e0141002104200057
:104b44008e804000000420000e00400092190700ef
:104b54000004e000f1043a002e209000e30f50001e
:104b6400ee043600426521006000b8000089be00f2
:104b7400640141006000b8000089be006401410086
:104b84006000b8000089be00640141006000b80004
:104b94000089be00640141006000b8000089be00c5
:104ba4000000eb0050b388000000eb0060b3880005
:104bb4000000eb0070b388000e20900090b28800d3
:104bc4001e2090008000eb00c21907000080fb004b
:104bd400a0b288001e20900021002000bd1907000b
:104be4000080fb00b0b288008e20900010102e00d0
:104bf400808f500012003a00b0b2800080cb880051
:104c040060002000c0b2880030c0b30068f6b7006e
:104c14000f02b00000fe2f00008047002165210034
:104c24000f000900311878000002b1007c1a070057
:104c340000fe2f00808747009d190700b704370046
:104c4400b1b2800080cb8000808f5000020032001f
:104c540097190700b10437000e209000102f980018
:104c6400401e2e009e289000808f50001e043200ab
:104c7400401e2e009e289000808f50003c003e0075
:104c8400b0112e009e289000808f500047043200ff
:104c9400b0112e009e289000808f50001a003e0014
:104ca400d0102e009e289000808f500028023200e1
:104cb400d0102e009e289000808f500009003e00e6
:104cc40060102e009e289000808f50000b0132004f
:104cd40070102e009e289000808f5000f900320042
:104ce4007f043700e0102e009e289000808f500033
:104cf40071023200f0102e009e289000808f500028
:104d04009902320076043700101e2e009e2890006f
:104d1400808f5000b9023200101e2e009e28900091
:104d2400808f500009003e00c0112e009e28900084
:104d3400808f500036043200d0112e009e2890003f
:104d4400808f50006a04320065043700201e2e0054
:104d54009e289000808f500081033200301e2e0068
:104d64009e289000808f5000ae0332005c04370010
:104d740020302e009e289000808f50003c0032008e
:104d840020302e009e289000808f50001a003e0094
:104d9400801e2e009e289000808f50001c0332003d
:104da400801e2e009e289000808f500009003e0037
:104db400601e2e009e289000808f5000b2023200a8
:104dc400701e2e009e289000808f5000df0232005b
:104dd40043043700a01e2e009e289000808f5000b0
:104de4003c03320030202e009e289000808f50001b
:104df400510032003a04370090602e009e28900043
:104e0400808f5000ca00320090602e009e289000cf
:104e1400808f500009003e0040402e009e289000e4
:104e2400808f50006400320050502e009e28900065
:104e3400808f50009400320029043700b0602e00a7
:104e44009e289000808f50008e013200b0602e00aa
:104e54009e289000808f500057013900d0602e00aa
:104e64009e289000808f5000e40032001c0437001c
:104e74002e209000fc0f50002a003a001e209000c3
:104e84004100200058190700701f98007e189000f8
:104e9400610060000004e000040032001e20900065
:104ea400c100200050190700a0cb88007e18900094
:104eb4000000d100610060000004e0000400320042
:104ec4001e209000010120004719070090cb8800a4
:104ed4007e1890004200de00610060000004e000e3
:104ee400040032001e209000410120003e190700fa
:104ef400c0cb88007e1890004300de006100600093
:104f04000004e000040032001e2090008101200013
:104f140035190700b0cb880060002000c0b28800bb
:104f24000200370070002000c0b2880030c0b30017
:104f340068f6b700ee0337002e209000f40f5000ff
:104f440018003a001e209000410020002619070096
:104f5400601f98006e189000610060000004e0007b
:104f6400040032001e209000c10020001e1907001a
:104f7400e0cb88006e1890000000d1006100600052
:104f84000004e000040032001e2090000101200013
:104f940015190700f0cb880060002000c0b288001b
:104fa4000200370070002000c0b2880030c0b30097
:104fb40068f6b700ce033700ae2090000002200050
:104fc400808f50002b003a001e20900041002000ea
:104fd40005190700501f98005e18900061006000da
:104fe4000004e000040032001e209000c1002000f4
:104ff400fd18070000cc88005e1890000000d10066
:10500400610060000004e000040032001e209000f3
:1050140001012000f418070010cc88005e189000ed
:105024004200de00610060000004e0000400320081
:105034001e20900041012000eb18070020cc8800be
:105044005e1890004300de00610060000004e00090
:10505400050032001e20900081012000e2180700a4
:105064000080fb0030cc880060002000c0b28800c3
:105074000200370070002000c0b2880030c0b300c6
:1050840068f6b7009a0337002e209000f00f500006
:1050940007003a001e209000c1002000d21807002b
:1050a40040cc880060002000c0b2880002003700b5
:1050b40070002000c0b2880030c0b30068f6b700aa
:1050c4008b0337002e209000e40f500006003a00b6
:1050d400d21c0700806421003020070060002000fb
:1050e400c0b288000200370070002000c0b28800ff
:1050f40030c0b30068f6b7007d0337002e2090005f
:10510400e40f500005003a00d0ceb3004c1e070057
:1051140060002000c0b28800020037007000200048
:10512400c0b2880030c0b30068f6b700700337001f
:105134001e20900041002000ab180700401f98007b
:105144001e20900081002000a7180700301f98003f
:105154004e1890000000e00002003a001000200009
:1051640040588900ce1890003e189000808040007e
:1051740000192000808f50001b003e003e18900054
:105184000000a200610060000004a2000004e0002e
:1051940015003a003e1890000002d1001e20900035
:1051a400ec00400042ca80004e1890000000d1007c
:1051b400000040000000410003c1b3000401780076
:1051c4001afe070060002000c0b28800ce189000cc
:1051d4003e18900000804000d0b2880040c0b30068
:1051e40068f6b7004203370070002000c0b28800a0
:1051f40030c0b30068f6b7003d0337001e209000ae
:105204004100200078180700201f98001e209000fd
:105214008100200074180700101f98002e189000b9
:105224000000e00002003a0010002000405889000d
:10523400ae1890001e1890008080400000192000d5
:10524400808f500057003e001e1890000000a200fe
:10525400610060000004a2000004e00051003a0074
:105264001e1890000001d1001e2090006c02400026
:105274002e1890000000d10000004000800078004b
:10528400009a21000080400003c1b300840078002c
:10529400e6fd070060002000c0b28800ae18900050
:1052a4001e18900000804000d0b2880040c0b300b7
:1052b40068f6b700d1b2800000192000808f50003a
:1052c4000b033a000000eb00001f98002200370097
:1052d400a0cc8000b1cc800070279800012f9800ea
:1052e4000e18900000004000010320008080400060
:1052f4000097210000804000100478006140b9004c
:10530400faee070050279800612798000800e00093
:1053140007003d0002002000037824005e20900076
:10532400ee20900029ed070050279800612798008f
:105334005e219000ee2190007e2090008e28900047
:1053440022ed0700a0cc8800b1cc88000e18900094
:105354000000e800001f98008e189000700c2000d8
:10536400808f5000daff3600a0cc8000b1cc8000e2
:105374000200200083342400cded0700a0cc880077
:10538400b1cc8800a2cc8000b3cc8000810c20007a
:10539400009a2100e8f60700c0cc8800d1cc880030
:1053a400d302370070002000c0b2880030c0b300c0
:1053b40068f6b700ce0237001e209000410020009e
:1053c40009180700701798001e2090008100200023
:1053d40005180700601798007e1090000000e00098
:1053e40002003a001000200040988900fe1090004e
:1053f4006e1090008080400000192000808f5000c3
:105404001b003e006e1090000000a20061006000ce
:105414000004a2000004e00015003a006e109000a1
:105424000002d1001e209000ec00400032ca80002f
:105434007e1090000000d1000000400000004100f8
:1054440003c1b3000401780078fd07006000200068
:10545400c0b28800fe1090006e10900000804000e2
:10546400d0b2880040c0b30068f6b700a00237008d
:1054740070002000c0b2880030c0b30068f6b700e6
:105484009b0237001e20900041002000d617070021
:10549400501798001e20900081002000d2170700aa
:1054a400401798005e1090000000e00002003a00ef
:1054b4001000200040188900de1090004e1090006b
:1054c4008080400000192000808f50001b003e00a7
:1054d4004e1090000000a200610060000004a200d1
:1054e4000004e00015003a004e1090000002d100c4
:1054f4001e209000ec00400052ca80005e10900014
:105504000000d100000040000000410003c1b300ce
:105514000401780045fd070060002000c0b2880047
:10552400de1090004e10900000804000d0b2880041
:1055340040c0b30068f6b7006d0237007000200069
:10554400c0b2880030c0b30068f6b7006802370004
:105554002e209000e40f500052003a00600020001a
:10556400c0b2880030c0b30068f6b7000f02b000c4
:1055740000fe2f0000804700216521000f00090074
:10558400311878000002b1002518070000fe2f0032
:105594008087470046170700405881008040eb0091
:1055a40001cf98000000e0000200320010c0b300f8
:1055b40000cf98008ec890000180fb00610060005d
:1055c4004201dd0011ca8000b0ff2f00008060009e
:1055d4000200700010ca8800409881008040eb00ef
:1055e40071c798000000e0000200320010c0b30050
:1055f40070c79800fec090000180fb00610060004d
:105604000001400011ca8000d0ff2f00008060001c
:105614000200700010ca8800401881008040eb002e
:1056240061c798000000e0000200320010c0b3001f
:1056340060c79800eec090000180fb00610060002c
:105644004301dd0011ca800070ff2f00008060005c
:105654000200700010ca88000000eb0030179800a8
:105664000a0037003e10900000004000ee004000a9
:1056740020942100808040000000eb008008780026
:105684003e1090000000e800301798003e10900093
:10569400e50f5000f3ff34000040eb0091f5b70034
:1056a4001e02370070002000c0b2880030c0b30072
:1056b40068f6b7000e0237002e209000e40f500069
:1056c40024003a0060002000c0b2880030c0b3005b
:1056d40068f6b7000f02b00000fe2f0000804700fc
:1056e400216521000f000900311878000002b10083
:1056f400cb17070000fe2f0080874700ec16070039
:105704004259a9004239a9004279a9004219a900c5
:105714000000eb00201798000a0037002e109000bc
:1057240000004000ee0040002094210080804000f2
:105734000000eb00800878002e1090000000e800c4
:10574400201798002e109000e50f5000f3ff34004e
:10575400f201370070002000c0b2880030c0b300ee
:1057640068f6b700e20137002e209000e40f5000e5
:105774001d003a004259a9004239a9004279a90002
:105784004219a9000000eb00101798000a00370026
:105794001e10900000004000ee0040002094210004
:1057a400808040000000eb00800878001e1090000c
:1057b4000000e800101798001e109000e50f50003c
:1057c400f3ff34000000eb00401889000000eb00f8
:1057d400405889000000eb004098890060002000d8
:1057e400c0b288000200370070002000c0b28800f8
:1057f40030c0b30068f6b700bd0137001e2090002a
:1058040041002000f8160700001798001e209000a1
:1058140081002000f4160700700f98007e089000a5
:105824000000e000130032008e1090007e0890000b
:1058340080804000001c2000808f50000d003e003e
:1058440060002000c0b288008e1090007e08900096
:1058540000804000d0b288000097210050b3880037
:105864000e10900060b38800fe08900071b38800a9
:105874009f01370070002000c0b2880030c0b30020
:1058840068f6b7009a0137001e20900041002000fe
:10589400d5160700600f98001e209000810020009c
:1058a400d1160700500f98006e0890000000e00029
:1058b40004003a000040eb0091f5b7009115a800f0
:1058c40007003700ee0890005e08900080804000da
:1058d40050192000808f5000010036009195a800d7
:1058e4005e0890000000e00013003200ee08900013
:1058f4005e0890008080400060192000808f500076
:105904000d003e0060002000c0b28800ee08900048
:105914005e08900000804000d0b28800003322006e
:1059240050b388006e08900060b38800de089000d1
:1059340071b388006e01370070002000c0b2880087
:1059440030c0b30068f6b700690137001e2090002c
:1059540041002000a4160700400f98001e2090006c
:1059640081002000a0160700300f98004e08900018
:105974000000e00004003a000040eb0091f5b7009d
:105984009135a80007003700ce0890003e0890002b
:105994008080400050192000808f500001003600a4
:1059a40091b5a8003e0890000000e000130032000a
:1059b400ce0890003e0890008080400060192000ce
:1059c400808f50000d003e0060002000c0b28800af
:1059d400ce0890003e08900000804000d0b28800bd
:1059e40000b3220050b388004e08900060b38800d2
:1059f400be08900071b388003d013700700020009c
:105a0400c0b2880030c0b30068f6b7003801370070
:105a14001e2090004100200073160700200f9800fc
:105a24001e209000810020006f160700100f9800c0
:105a34002e0890000000e00004003a000040eb0053
:105a440091f5b7009155a80007003700ae08900003
:105a54001e0890008080400050192000808f500064
:105a64000100360091d5a8001e0890000000e00057
:105a740013003200ae0890001e08900080804000a1
:105a840060192000808f50000d003e00600020004f
:105a9400c0b28800ae0890001e089000008040004c
:105aa400d0b2880000b3210050b388002e089000c3
:105ab40060b388009e08900071b388000c01370021
:105ac40070002000c0b2880030c0b30068f6b70090
:105ad400070137001e2090004100200042160700f5
:105ae400000f98001e209000810020003e16070041
:105af400700798007e0090000000e0001300320060
:105b04008e0890007e00900080804000c019200024
:105b1400808f50000d003e0060002000c0b288005d
:105b24008e0890007e00900000804000d0b2880073
:105b34000033230050b388000e08900060b388003f
:105b4400fe00900071b38800e90037007000200067
:105b5400c0b2880030c0b30068f6b700e400370074
:105b64001e209000410020001f16070060079800c7
:105b74001e209000810020001b160700500798008b
:105b84006e0090000000e00004003a000040eb00ca
:105b940091f5b7009115a80007003700ee009000ba
:105ba4005e00900080804000f07f2000808f5000d5
:105bb400010036009195a8005e0090000000e0000e
:105bc40013003200ee0090005e00900080804000e0
